{
  "contractName": "HelloWorld",
  "abi": [
    {
      "inputs": [],
      "stateMutability": "nonpayable",
      "type": "constructor"
    },
    {
      "inputs": [],
      "name": "owner",
      "outputs": [
        {
          "internalType": "address",
          "name": "",
          "type": "address"
        }
      ],
      "stateMutability": "view",
      "type": "function"
    },
    {
      "inputs": [],
      "name": "value",
      "outputs": [
        {
          "internalType": "uint256",
          "name": "",
          "type": "uint256"
        }
      ],
      "stateMutability": "view",
      "type": "function"
    },
    {
      "inputs": [
        {
          "internalType": "uint256",
          "name": "_value",
          "type": "uint256"
        }
      ],
      "name": "setValue",
      "outputs": [],
      "stateMutability": "nonpayable",
      "type": "function"
    },
    {
      "inputs": [],
      "name": "checkValue",
      "outputs": [],
      "stateMutability": "view",
      "type": "function"
    },
    {
      "inputs": [],
      "name": "resetValue",
      "outputs": [],
      "stateMutability": "nonpayable",
      "type": "function"
    }
  ],
  "bytecode": "0x608060405234801561001057600080fd5b50336000806101000a81548173ffffffffffffffffffffffffffffffffffffffff021916908373ffffffffffffffffffffffffffffffffffffffff16021790555061044e806100606000396000f3fe608060405234801561001057600080fd5b50600436106100575760003560e01c806316e9fe811461005c5780633fa4f2451461006657806355241077146100845780635c681920146100a05780638da5cb5b146100aa575b600080fd5b6100646100c8565b005b61006e610160565b60405161007b9190610205565b60405180910390f35b61009e60048036038101906100999190610251565b610166565b005b6100a86101b3565b005b6100b26101c8565b6040516100bf91906102bf565b60405180910390f35b60008054906101000a900473ffffffffffffffffffffffffffffffffffffffff1673ffffffffffffffffffffffffffffffffffffffff163373ffffffffffffffffffffffffffffffffffffffff1614610156576040517f08c379a000000000000000000000000000000000000000000000000000000000815260040161014d9061035d565b60405180910390fd5b6000600181905550565b60015481565b600081116101a9576040517f08c379a00000000000000000000000000000000000000000000000000000000081526004016101a0906103c9565b60405180910390fd5b8060018190555050565b6000600154116101c6576101c56103e9565b5b565b60008054906101000a900473ffffffffffffffffffffffffffffffffffffffff1681565b6000819050919050565b6101ff816101ec565b82525050565b600060208201905061021a60008301846101f6565b92915050565b600080fd5b61022e816101ec565b811461023957600080fd5b50565b60008135905061024b81610225565b92915050565b60006020828403121561026757610266610220565b5b60006102758482850161023c565b91505092915050565b600073ffffffffffffffffffffffffffffffffffffffff82169050919050565b60006102a98261027e565b9050919050565b6102b98161029e565b82525050565b60006020820190506102d460008301846102b0565b92915050565b600082825260208201905092915050565b7f4f6e6c7920746865206f776e65722063616e207265736574207468652076616c60008201527f7565000000000000000000000000000000000000000000000000000000000000602082015250565b60006103476022836102da565b9150610352826102eb565b604082019050919050565b600060208201905081810360008301526103768161033a565b9050919050565b7f56616c7565206d7573742062652067726561746572207468616e207a65726f00600082015250565b60006103b3601f836102da565b91506103be8261037d565b602082019050919050565b600060208201905081810360008301526103e2816103a6565b9050919050565b7f4e487b7100000000000000000000000000000000000000000000000000000000600052600160045260246000fdfea26469706673582212202028c4d0c6ff68a093f835b683d8ca4c56c9377930487f37bc2663f1ac8a07c764736f6c63430008110033",
  "immutableReferences": {},
  "source": "// SPDX-License-Identifier: MIT\npragma solidity ^0.8.0;\n\ncontract HelloWorld {\n    address public owner;\n    uint public value;\n\n    constructor() {\n        owner = msg.sender;\n    }\n\n    function setValue(uint _value) public {\n        // Using require to check condition\n        require(_value > 0, \"Value must be greater than zero\");\n        value = _value;\n    }\n\n    function checkValue() public view {\n        // Using assert to validate the state\n        assert(value > 0);\n    }\n\n    function resetValue() public {\n        // Only owner can reset the value\n        if (msg.sender != owner) {\n            // Using revert to handle errors\n            revert(\"Only the owner can reset the value\");\n        }\n        value = 0;\n    }\n}\n",
  "sourcePath": "/workspace/solidity_starter/contracts/HelloWorld.sol",
  "compiler": {
    "name": "solc",
    "version": "0.8.17+commit.8df45f5f.Emscripten.clang"
  },
  "schemaVersion": "3.4.16",
  "updatedAt": "2024-07-07T17:49:31.483Z",
  "devdoc": {
    "kind": "dev",
    "methods": {},
    "version": 1
  },
  "userdoc": {
    "kind": "user",
    "methods": {},
    "version": 1
  }
}